:020000040000FA
:100000000313831686010F308700850107308100B6
:100010008312FF308600FF3087000712071C342848
:10002000871C3A28071D402807168712071C4628F8
:10003000871C4C28071D522887160713071C5828B1
:10004000871C5E28071D652807178713071C6B2868
:10005000871C2E28071D6B2887170B28C0308600A9
:10006000AD20FF3086007128F9308600AD20FF30CA
:1000700086007128A4308600AD20FF3086007128EC
:10008000B0308600AD20FF308600712899308600A0
:10009000AD20FF308600712892308600AD20FF3001
:1000A0008600712882308600AD20FF3086007128DE
:1000B000F8308600AD20FF308600712800308600C1
:1000C000AD20AD20FF308600712810308600AD20B5
:1000D000FF3086007128BF308600AD20FF308600DB
:1000E000712807080739073C031D7128AD200B282C
:1000F00000000000000000000000000008000000F8
:10010000A4308B28000040308B281F308B28000043
:100110000E308B2805308C008C0B8C280800C830E2
:100120009E2864309E2832309E2814309E280A3043
:100130009E2805309E2802309E2801308D00F9301F
:100140008C0000008C0BA1288D0B9F280800C83064
:10015000B2286430B2283230B2281430B2280A30C3
:10016000B22805308E0064308D00F9308C0000001C
:0E0170008C0BB7288D0BB5288E0BB32808001A
:02400E00713F00
:00000001FF
